:100000000C945E000C9486000C9486000C94860080
:100010000C9486000C9486000C9486000C940004CA
:100020000C9486000C9486000C9486000C94860038
:100030000C9486000C9486000C9486000C94860028
:100040000C94B4040C9486000C9482040C945C040C
:100050000C9486000C9486000C9486000C94860008
:100060000C9486000C9486000000000024002700F9
:100070002A0000000008000201000003040700003D
:10008000000000000000010204081020408001026E
:1000900004081020010204081020000000002500C0
:1000A00028002B00040404040404040402020202D5
:1000B00002020303030303030200FE0411241FBE14
:1000C000CFEFD8E0DEBFCDBF11E0A0E0B1E0E0E3CC
:1000D000F7E102C005900D92AA34B107D9F722E0EA
:1000E000AAE4B1E001C01D92A931B207E1F710E026
:1000F000CEE5D0E004C02197FE010E94900BCD35E3
:10010000D107C9F70E9403060C94960B0C940000CB
:10011000AF92BF92CF92DF92EF92FF920F931F9315
:10012000CF93DF936C017B018B01040F151FEB0153
:100130005E01AE18BF08C017D10759F06991D6010A
:10014000ED91FC910190F081E02DC6010995892B7C
:1001500079F7C501DF91CF911F910F91FF90EF903B
:10016000DF90CF90BF90AF900895FC01538D448DE8
:10017000252F30E0842F90E0821B930B541710F052
:10018000CF96089501970895FC01918D828D98175F
:1001900061F0A28DAE0FBF2FB11D5D968C91928D37
:1001A0009F5F9F73928F90E008958FEF9FEF089568
:1001B000FC01918D828D981731F0828DE80FF11D31
:1001C000858D90E008958FEF9FEF0895FC01918D4C
:1001D000228D892F90E0805C9F4F821B91098F7345
:1001E0009927089584E691E00E94E60021E0892B9A
:1001F00009F420E0822F089580E090E0892B29F017
:100200000E94F20081110C9400000895FC01A48D5D
:10021000A80FB92FB11DA35ABF4F2C91848D90E028
:1002200001968F739927848FA689B7892C93A0890B
:10023000B1898C91837080648C93938D848D981395
:1002400006C00288F389E02D80818F7D8083089528
:10025000EF92FF920F931F93CF93DF93EC0181E016
:10026000888F9B8D8C8D98131AC0E889F9898081BD
:1002700085FF15C09FB7F894EE89FF896083E889F0
:10028000F98980818370806480839FBF81E090E0E2
:10029000DF91CF911F910F91FF90EF900895F62E6F
:1002A0000B8D10E00F5F1F4F0F731127E02E8C8D09
:1002B0008E110CC00FB607FCFACFE889F98980814E
:1002C00085FFF5CFCE010E940601F1CFEB8DEC0F3B
:1002D000FD2FF11DE35AFF4FF0829FB7F8940B8F6B
:1002E000EA89FB8980818062CFCFCF93DF93EC01D5
:1002F000888D8823B9F0AA89BB89E889F9898C910E
:1003000085FD03C0808186FD0DC00FB607FCF7CFC9
:100310008C9185FFF2CF808185FFEDCFCE010E94C9
:100320000601E9CFDF91CF91089590E0FC01EE58EE
:10033000FF4F2491FC01EA57FF4F3491FC01EC552B
:10034000FF4FE491EE23C9F0222339F0233001F16D
:10035000A8F4213019F1223029F1F0E0EE0FFF1F4F
:10036000E656FF4FA591B4918FB7F894EC916111C7
:1003700026C030953E233C938FBF08952730A9F0C7
:100380002830C9F0243049F7809180008F7D03C068
:10039000809180008F7780938000DFCF84B58F7746
:1003A00084BDDBCF84B58F7DFBCF8091B0008F778C
:1003B0008093B000D2CF8091B0008F7DF9CF3E2BDB
:1003C000DACF9091000189130BC0E8EBF0E0E491E3
:1003D0009FEF90930001E13049F028F0E23061F0A6
:1003E00060E00C94950110926E00FACF90916F002E
:1003F0009D7F90936F00F4CF909170009D7F9093BC
:10040000700091E09093B0009091B100987F94605B
:100410009093B1001092B300E3CFCF93DF9390E0BD
:10042000FC01EA57FF4F24918C559F4FFC018491AA
:100430008823D1F090E0880F991FFC01E859FF4F05
:10044000A591B491FC01E656FF4FC591D49161117D
:100450000EC09FB7F8948C91E22FE0958E238C9379
:100460002881E223E8839FBFDF91CF9108958FB762
:10047000F894EC91E22BEC938FBFF6CF8E50806412
:1004800080937C0080917A00806480937A008091D0
:100490007A0086FDFCCF80917800909179000895D4
:1004A0003FB7F89480914F0190915001A091510174
:1004B000B091520126B5A89B05C02F3F19F00196B7
:1004C000A11DB11D3FBFBA2FA92F982F8827BC01AE
:1004D000CD01620F711D811D911D42E0660F771FD6
:1004E000881F991F4A95D1F708958F929F92AF92D6
:1004F000BF92CF92DF92EF92FF920E9450024B0187
:100500005C0184EFC82EDD24D394E12CF12C0E94F1
:100510005002681979098A099B09683E7340810570
:100520009105A8F321E0C21AD108E108F10888EE8C
:10053000880E83E0981EA11CB11CC114D104E104F3
:10054000F10429F7FF90EF90DF90CF90BF90AF902C
:100550009F908F900895089590E080E00895CF9344
:10056000DF93EC0160E08E810E94950161E08E8155
:100570000E94950160E08E810E9495018BE891E0D8
:100580000197F1F7DF91CF910895CF92DF92EF922B
:10059000FF920F931F93CF93DF936C017C0187E051
:1005A000E80EF11CD0E0C0E0062F10E0B8010C2EE0
:1005B00002C0759567950A94E2F76170F701819121
:1005C0007F010E9495012196C430D10579F7C601BB
:1005D000DF91CF911F910F91FF90EF90DF90CF901F
:1005E0000C94AF02CF92DF92EF92FF920F931F9382
:1005F000CF93DF93EC01F62E642F8C810E9495013E
:100600008D818F3F19F060E00E9495010F2D10E061
:100610008F8584FF25C06E0187E0C80ED11CF12CA8
:10062000E12CB8010E2C02C0759567950A94E2F78B
:100630006170F60181916F010E949501FFEFEF1A41
:10064000FF0A88E0E816F10461F7CE01DF91CF914F
:100650001F910F91FF90EF90DF90CF900C94AF021D
:10066000B80184E0759567958A95E1F7CE010E94FF
:10067000C5026F2DCE01DF91CF911F910F91FF9099
:10068000EF90DF90CF900C94C50240E0682F81E09E
:1006900092E00C94F20281E00E9445038BE39FE11B
:1006A0000197F1F70895E1E0809114028111E0E0F3
:1006B000E195F0E0EF5FFD4F848980680C9445037D
:1006C00041E00E94F20281E090E00895FB01019078
:1006D0000020E9F73197AF01461B570BDC01ED9184
:1006E000FC910280F381E02D09948F929F92AF924A
:1006F000BF920F931F93CF93DF93CDB7DEB7A19730
:100700000FB6F894DEBF0FBECDBF19A2423008F479
:100710004AE08E010F5D1F4F842E912CB12CA12C2D
:10072000A50194010E946E0BE62FB901CA01EA30BF
:1007300004F5E05DD801EE938D01232B242B252BAE
:1007400079F790E080E0109729F0BD0184E691E010
:100750000E946603A1960FB6F894DEBF0FBECDBF10
:10076000DF91CF911F910F91BF90AF909F908F908D
:100770000895E95CDFCFCF92DF92EF92FF92CF93A3
:10078000DF936B017C016DE284E691E00E94280119
:10079000EC0166277727CB016C197D098E099F092B
:1007A0004AE00E9475038C0F9D1FDF91CF91FF904F
:1007B000EF90DF90CF900895BC01990F880B990BB3
:1007C00097FD0C94BB034AE00C947503CF93DF9321
:1007D000BC01990F880B990B97FF0EC00E94BB03B9
:1007E000EC016FE171E084E691E00E9466038C0FFA
:1007F0009D1FDF91CF9108954AE00E947503F0CFCD
:100800001F920F920FB60F9211242F933F934F9385
:100810005F936F937F938F939F93AF93BF93EF9368
:10082000FF938091580190915901A0915A01B09184
:100830005B01892B8A2B8B2BD1F190915301E09195
:100840005401F0915501808189278083809158015E
:1008500090915901A0915A01B0915B0118161906A7
:100860001A061B069CF48091580190915901A091A1
:100870005A01B0915B010197A109B1098093580118
:1008800090935901A0935A01B0935B01FF91EF91AE
:10089000BF91AF919F918F917F916F915F914F9198
:1008A0003F912F910F900FBE0F901F901895809140
:1008B00000010E94E101EACF1F920F920FB60F9242
:1008C00011242F933F934F935F936F937F938F9355
:1008D0009F93AF93BF93EF93FF9384E691E00E94C1
:1008E0000601FF91EF91BF91AF919F918F917F9101
:1008F0006F915F914F913F912F910F900FBE0F908D
:100900001F9018951F920F920FB60F9211242F93DC
:100910008F939F93EF93FF93E0917401F091750192
:100920008081E0917A01F0917B0182FD1BC0908172
:1009300080917D018F5F8F7320917E01821741F03E
:10094000E0917D01F0E0EC59FE4F958F80937D01A1
:10095000FF91EF919F918F912F910F900FBE0F906C
:100960001F9018958081F4CF1F920F920FB60F92AF
:1009700011242F933F938F939F93AF93BF938091B5
:100980004B0190914C01A0914D01B0914E013091DD
:100990004A0123E0230F2D3758F50196A11DB11D03
:1009A00020934A0180934B0190934C01A0934D01F9
:1009B000B0934E0180914F0190915001A09151014F
:1009C000B09152010196A11DB11D80934F019093EA
:1009D0005001A0935101B0935201BF91AF919F91EB
:1009E0008F913F912F910F900FBE0F901F901895F0
:1009F00026E8230F0296A11DB11DD2CFCF93DF931E
:100A0000109267011092660188EE93E0A0E0B0E0DA
:100A10008093680190936901A0936A01B0936B0180
:100A200085E091E0909365018093640185EC90E00E
:100A3000909371018093700184EC90E09093730126
:100A40008093720180EC90E0909375018093740123
:100A500081EC90E0909377018093760182EC90E0B6
:100A6000909379018093780186EC90E090937B01DC
:100A700080937A0110927D0110927E0110927F0185
:100A800010928001109204021092030287E191E01B
:100A900090930202809301028CE0809305028FEF15
:100AA000809306028BE0809307028AE0809308021D
:100AB00089E08093090288E080930A0287E08093AE
:100AC0000B0210920C0210920D0210920E02109264
:100AD0000F021092100281E080931402109215020E
:100AE00080E48093160280E18093170280E5809372
:100AF000180261E08CE00E940D02809106028F3F97
:100B000019F061E00E940D0261E0809107020E94ED
:100B10000D02C1E0D2E09E012150324080911002CE
:100B200084FD0BC084E090E021962817390744F437
:100B300061E08E810E940D02EECF88E090E0F4CF5C
:100B40008BE39DE00197F1F760E0809105020E9440
:100B5000950160E0809107020E9495018091060254
:100B60008F3F19F060E00E9495018091100284FD92
:100B700034C063E081E092E00E94C502CBE4D6E499
:100B8000CE010197F1F763E081E092E00E94C50297
:100B90002197F1F763E081E092E00E94C50283E5CE
:100BA00092E00197F1F762E081E092E00E94C502D5
:100BB0008091100280620E94450384E080931102BC
:100BC0008CE00E9445030E944B0382E08093120256
:100BD00086E0DF91CF910C94450380620E9445032B
:100BE0008BE496E40197F1F78091100280620E94F5
:100BF000450383E592E00197F1F78091100280624E
:100C00000E944503D5CFCF93DF9300D000D0CDB75E
:100C1000DEB7789484B5826084BD84B5816084BD7C
:100C200085B5826085BD85B5816085BD80916E008A
:100C3000816080936E0010928100809181008260BB
:100C400080938100809181008160809381008091F8
:100C500080008160809380008091B10084608093E7
:100C6000B1008091B00081608093B00080917A00E3
:100C7000846080937A0080917A00826080937A0009
:100C800080917A00816080937A0080917A008068F8
:100C900080937A001092C10061E085E00E940D020D
:100CA00061E083E00E940D0261E084E00E940D0299
:100CB00061E086E00E940D0260E08FE00E940D027C
:100CC00060E08EE00E940D02E0917401F0917501E8
:100CD00082E08083E0917001F09171011082E091D7
:100CE0007201F09173018FEC808310927C01E0918E
:100CF0007801F091790186E08083E0917601F091AE
:100D00007701808180618083E0917601F0917701A5
:100D1000808188608083E0917601F0917701808105
:100D200080688083E0917601F091770180818F7DEA
:100D3000808338EB232E30E0332E0AEA10E044247F
:100D40004A94542C32018EE00E943E02BC01990F5D
:100D5000880B990B0E94470A20E030E040E85AE3F4
:100D60000E94FC0A20E030E44CE955E40E94FC0AB1
:100D700020E030E040E251E40E949D096B017C01DB
:100D80004B015C018FE00E943E02843F91400CF4D5
:100D900025C120E030E048EC52E4C701B6010E94D2
:100DA000F70A87FD1BC18FE00E943E020E94DC0310
:100DB00062E271E084E691E00E946603C701B60139
:100DC0000E940F0ACB010E94E6030E94530365E2D2
:100DD00071E081E092E00E94660360E084E00E949E
:100DE000950160E083E00E94950161E085E00E944A
:100DF0009501809100018630B1F4F101F490F7FC87
:100E0000B7C061E086E00E940D02FF2009F480C0B7
:100E1000F2E0FF1291C08091B100887F84608093DE
:100E2000B10089EFCBC08F3F09F0A2C086E080936C
:100E30000001F101F490FFEFFF1609F499C021E0E1
:100E4000F21631F1F21658F082E0F81609F43EC0BD
:100E5000F7FC8EC061E086E00E940D02D9CF14BC81
:100E600015BC84B5826084BD85B5816085BDF801FF
:100E70008491E82FF0E0EE0FFF1FE656FF4F8591BB
:100E80009491ECE8F0E0849180935701F12CB9CF74
:100E90001092800010928100809181008860809380
:100EA000810080918100816080938100F8018491AC
:100EB000E82FF0E0EE0FFF1FE656FF4F859194916B
:100EC000ECE8F0E08491809356019BCF1092B00043
:100ED0001092B1008091B00082608093B000809148
:100EE000B10081608093B100F8018491E82FF0E0B7
:100EF000EE0FFF1FE656FF4F859194919093550199
:100F000080935401ECE8F0E084918093530179CF11
:100F100085B5887F836085BD89EF87BD409260017C
:100F200050926101609262017092630180916E0043
:100F3000826080936E001CC021E0F21237C0809165
:100F40008100887F8160809381008FE79EE390938A
:100F500089008093880040925C0150925D0160920C
:100F60005E0170925F0180916F00826080936F00DC
:100F70000E94750260E085E00E9495010E94750262
:100F800061E085E00E9495010E944B0386E00E948B
:100F9000E101A0E0B0E0AB2B09F4D5CE0E94F20055
:100FA000882309F4D0CE0E940000CDCE92E0F9163D
:100FB00021F0F110DDCF8FE7B0CF8FE78093B30042
:100FC000409258015092590160925A0170925B010F
:100FD00080917000826080937000CACF8FE00E9481
:100FE0003E02803991400CF069C08FE00E943E02C1
:100FF000843F91400CF07DC020E030E048EC52E4AA
:10100000C701B6010E94F70A87FF73C08FE00E94F4
:101010003E020E94DC0362E271E084E691E00E94FD
:101020006603A7019601C701B6010E94690B6EE233
:1010300071E0811120C0D701C601BF7789839A83EF
:10104000AB83BC832FEF3FEF4FE75FE7BC01CD01E0
:101050000E94690B811186C02FEF3FEF4FE75FE7DA
:1010600069817A818B819C810E94980918160CF005
:1010700079C062E371E084E691E00E9466036FE16B
:1010800071E084E691E00E9466030E9453036AE3E4
:1010900071E081E092E00E94660361E083E00E94DB
:1010A000950160E085E00E94950160E084E00E9487
:1010B000950160E086E00E9495016BCF8FE00E9471
:1010C0003E02843F91400CF090CF20E030E044EBB2
:1010D00052E4C701B6010E94F70A87FD86CF20E0DF
:1010E00030E048EC52E4C701B6010E94980987FF3E
:1010F0007CCF8FE00E943E020E94DC0362E271E03E
:1011000084E691E00E946603C701B6010E940F0ABF
:10111000CB010E94E6030E9453036FE371E081E07C
:1011200092E00E94660360E085E00E94950160E025
:1011300086E00E94950160E083E00E94950161E0F5
:1011400084E00E9495010E94750260E084E00E94A4
:1011500095010E94750261E084E00E9495010E9461
:101160004B0317CF2FEF3FEF4FE75FE4C701B60107
:101170000E94F70A18161CF466E371E07CCF2FEF8B
:101180003FEF4FE75FECC701B6010E94980987FD6A
:10119000F3CF20E030E0A901C701B6010E94980911
:1011A00087FF0BC06DE284E691E00E9428014601B2
:1011B0005701B7FAB094B7F8B0942AE037ED43EA94
:1011C0005BE3C501B4010E942C094B015C010E9444
:1011D000160A6B017C010E94450A9B01AC01C50106
:1011E000B4010E942B094B015C014AE0C701B60122
:1011F0000E9475036EE284E691E00E94280120E0DF
:1012000030E040E251E4C501B4010E94FC0A4B0108
:101210005C010E94160A6B01F12CE12C4AE0C70127
:10122000B6010E947503C701B6010E94450A9B01E1
:10123000AC01C501B4010E942B0920E030E040E27E
:1012400051E40E94FC0A0E94160A90E080E04AE005
:101250000E94750314CF5058BB27AA270E94430948
:101260000C94BD0A0E94AF0A38F00E94B60A20F022
:1012700039F49F3F19F426F40C94AC0A0EF4E0956F
:10128000E7FB0C94A60AE92F0E94CE0A58F3BA177E
:10129000620773078407950720F079F4A6F50C948C
:1012A000F00A0EF4E0950B2EBA2FA02D0B01B90118
:1012B00090010C01CA01A0011124FF27591B99F0CC
:1012C000593F50F4503E68F11A16F040A22F232FD8
:1012D000342F4427585FF3CF469537952795A79528
:1012E000F0405395C9F77EF41F16BA0B620B730BCF
:1012F000840BBAF09150A1F0FF0FBB1F661F771F40
:10130000881FC2F70EC0BA0F621F731F841F48F4F4
:10131000879577956795B795F7959E3F08F0B0CF7D
:101320009395880F08F09927EE0F97958795089564
:101330000E94820A08F481E008950E94B1090C9489
:10134000BD0A0E94B60A58F00E94AF0A40F029F484
:101350005F3F29F00C94A60A51110C94F10A0C94E9
:10136000AC0A0E94CE0A68F39923B1F3552391F396
:10137000951B550BBB27AA2762177307840738F004
:101380009F5F5F4F220F331F441FAA1FA9F335D061
:101390000E2E3AF0E0E832D091505040E695001C15
:1013A000CAF72BD0FE2F29D0660F771F881FBB1FCF
:1013B000261737074807AB07B0E809F0BB0B802DAD
:1013C000BF01FF2793585F4F3AF09E3F510578F0D9
:1013D0000C94A60A0C94F10A5F3FE4F3983ED4F310
:1013E000869577956795B795F7959F5FC9F7880FAD
:1013F000911D9695879597F90895E1E0660F771FFF
:10140000881FBB1F621773078407BA0720F0621B8F
:10141000730B840BBA0BEE1F88F7E09508950E94BA
:10142000160A6894B1110C94F10A08950E94D60A24
:1014300088F09F5798F0B92F9927B751B0F0E1F095
:10144000660F771F881F991F1AF0BA95C9F714C045
:10145000B13091F00E94F00AB1E008950C94F00AC6
:10146000672F782F8827B85F39F0B93FCCF386957E
:1014700077956795B395D9F73EF4909580957095DB
:1014800061957F4F8F4F9F4F0895E89409C097FB58
:101490003EF490958095709561957F4F8F4F9F4F4B
:1014A0009923A9F0F92F96E9BB279395F69587958F
:1014B00077956795B795F111F8CFFAF4BB0F11F452
:1014C00060FF1BC06F5F7F4F8F4F9F4F16C08823F9
:1014D00011F096E911C0772321F09EE8872F762F2F
:1014E00005C0662371F096E8862F70E060E02AF070
:1014F0009A95660F771F881FDAF7880F969587955C
:1015000097F90895990F0008550FAA0BE0E8FEEF30
:1015100016161706E807F907C0F012161306E407B7
:10152000F50798F0621B730B840B950B39F40A26B0
:1015300061F0232B242B252B21F408950A2609F48E
:10154000A140A6958FEF811D811D089597F99F6792
:1015500080E870E060E008959FEF80EC089500243B
:101560000A941616170618060906089500240A9408
:1015700012161306140605060895092E0394000C8E
:1015800011F4882352F0BB0F40F4BF2B11F460FF1D
:1015900004C06F5F7F4F8F4F9F4F089557FD905846
:1015A000440F551F59F05F3F71F04795880F97FB27
:1015B000991F61F09F3F79F08795089512161306E1
:1015C0001406551FF2CF4695F1DF08C01616170610
:1015D0001806991FF1CF8695710561050894089545
:1015E000E894BB2766277727CB0197F908950E94D7
:1015F000820A08F48FEF08950E940F0B0C94BD0A25
:101600000E94AF0A38F00E94B60A20F0952311F02C
:101610000C94A60A0C94AC0A11240C94F10A0E94B2
:10162000CE0A70F3959FC1F3950F50E0551F629F4E
:10163000F001729FBB27F00DB11D639FAA27F00D2B
:10164000B11DAA1F649F6627B00DA11D661F829F52
:101650002227B00DA11D621F739FB00DA11D621F37
:10166000839FA00D611D221F749F3327A00D611D54
:10167000231F849F600D211D822F762F6A2F112436
:101680009F5750409AF0F1F088234AF0EE0FFF1F69
:10169000BB1F661F771F881F91505040A9F79E3FC0
:1016A000510580F00C94A60A0C94F10A5F3FE4F314
:1016B000983ED4F3869577956795B795F795E79516
:1016C0009F5FC1F7FE2B880F911D9695879597F91F
:1016D00008950E94820A880B990B0895A1E21A2EA0
:1016E000AA1BBB1BFD010DC0AA1FBB1FEE1FFF1FC6
:1016F000A217B307E407F50720F0A21BB30BE40B16
:10170000F50B661F771F881F991F1A9469F760955C
:101710007095809590959B01AC01BD01CF01089516
:10172000EE0FFF1F0590F491E02D0994F894FFCF80
:10173000FF0000000028018800B5007501E600C424
:1017400000D8000000000060038800AC02AB020D6E
:101750000A002C200044414E4745522121006E6171
:101760006E00696E66006F7666005341464500570D
:0A17700041524E494E47212100006E
:00000001FF
